{
  "contractName": "HospitalRegistration",
  "abi": [
    {
      "inputs": [],
      "stateMutability": "nonpayable",
      "type": "constructor"
    },
    {
      "anonymous": false,
      "inputs": [
        {
          "indexed": true,
          "internalType": "address",
          "name": "hospitalAddress",
          "type": "address"
        },
        {
          "indexed": false,
          "internalType": "uint256",
          "name": "penaltyAmount",
          "type": "uint256"
        }
      ],
      "name": "HospitalPunished",
      "type": "event"
    },
    {
      "anonymous": false,
      "inputs": [
        {
          "indexed": true,
          "internalType": "address",
          "name": "hospitalAddress",
          "type": "address"
        },
        {
          "indexed": false,
          "internalType": "string",
          "name": "name",
          "type": "string"
        }
      ],
      "name": "HospitalRegistered",
      "type": "event"
    },
    {
      "inputs": [
        {
          "internalType": "address",
          "name": "",
          "type": "address"
        }
      ],
      "name": "hospitals",
      "outputs": [
        {
          "internalType": "string",
          "name": "name",
          "type": "string"
        },
        {
          "internalType": "string",
          "name": "email",
          "type": "string"
        },
        {
          "internalType": "uint256",
          "name": "contact",
          "type": "uint256"
        },
        {
          "internalType": "string",
          "name": "org",
          "type": "string"
        },
        {
          "internalType": "string",
          "name": "pin",
          "type": "string"
        },
        {
          "internalType": "uint256",
          "name": "establishedin",
          "type": "uint256"
        },
        {
          "internalType": "string",
          "name": "hospitalAddress",
          "type": "string"
        },
        {
          "internalType": "bool",
          "name": "isRegistered",
          "type": "bool"
        }
      ],
      "stateMutability": "view",
      "type": "function"
    },
    {
      "inputs": [],
      "name": "penaltyAmount",
      "outputs": [
        {
          "internalType": "uint256",
          "name": "",
          "type": "uint256"
        }
      ],
      "stateMutability": "view",
      "type": "function"
    },
    {
      "inputs": [],
      "name": "platformAddress",
      "outputs": [
        {
          "internalType": "address",
          "name": "",
          "type": "address"
        }
      ],
      "stateMutability": "view",
      "type": "function"
    },
    {
      "stateMutability": "payable",
      "type": "receive"
    },
    {
      "inputs": [
        {
          "internalType": "string",
          "name": "name",
          "type": "string"
        },
        {
          "internalType": "string",
          "name": "email",
          "type": "string"
        },
        {
          "internalType": "uint256",
          "name": "contact",
          "type": "uint256"
        },
        {
          "internalType": "string",
          "name": "org",
          "type": "string"
        },
        {
          "internalType": "string",
          "name": "pin",
          "type": "string"
        },
        {
          "internalType": "uint256",
          "name": "establishedin",
          "type": "uint256"
        },
        {
          "internalType": "string",
          "name": "hospitalAddress",
          "type": "string"
        }
      ],
      "name": "registerHospital",
      "outputs": [],
      "stateMutability": "nonpayable",
      "type": "function"
    },
    {
      "inputs": [
        {
          "internalType": "address",
          "name": "hospitalAddress",
          "type": "address"
        }
      ],
      "name": "punishHospital",
      "outputs": [],
      "stateMutability": "nonpayable",
      "type": "function"
    },
    {
      "inputs": [
        {
          "internalType": "address",
          "name": "hospitalAddress",
          "type": "address"
        }
      ],
      "name": "getHospitalDetails",
      "outputs": [
        {
          "components": [
            {
              "internalType": "string",
              "name": "name",
              "type": "string"
            },
            {
              "internalType": "string",
              "name": "email",
              "type": "string"
            },
            {
              "internalType": "uint256",
              "name": "contact",
              "type": "uint256"
            },
            {
              "internalType": "string",
              "name": "org",
              "type": "string"
            },
            {
              "internalType": "string",
              "name": "pin",
              "type": "string"
            },
            {
              "internalType": "uint256",
              "name": "establishedin",
              "type": "uint256"
            },
            {
              "internalType": "string",
              "name": "hospitalAddress",
              "type": "string"
            },
            {
              "internalType": "bool",
              "name": "isRegistered",
              "type": "bool"
            }
          ],
          "internalType": "struct HospitalRegistration.Hospital",
          "name": "",
          "type": "tuple"
        }
      ],
      "stateMutability": "view",
      "type": "function"
    },
    {
      "inputs": [
        {
          "internalType": "uint256",
          "name": "amount",
          "type": "uint256"
        }
      ],
      "name": "setPenaltyAmount",
      "outputs": [],
      "stateMutability": "nonpayable",
      "type": "function"
    },
    {
      "inputs": [],
      "name": "withdraw",
      "outputs": [],
      "stateMutability": "nonpayable",
      "type": "function"
    }
  ],
  "bytecode": "0x608060405268056bc75e2d6310000060025534801561001d57600080fd5b5033600160006101000a81548173ffffffffffffffffffffffffffffffffffffffff021916908373ffffffffffffffffffffffffffffffffffffffff16021790555061170a8061006e6000396000f3fe60806040526004361061007f5760003560e01c8063dbe55e561161004e578063dbe55e5614610131578063f093cf801461015c578063f218f48c146101a0578063f8a51f3f146101cb57610086565b80630bb307a81461008b5780633ccfd60b146100c85780636e588a37146100df578063d0cda3d51461010857610086565b3661008657005b600080fd5b34801561009757600080fd5b506100b260048036038101906100ad9190610f9b565b6101f4565b6040516100bf91906114b0565b60405180910390f35b3480156100d457600080fd5b506100dd610556565b005b3480156100eb57600080fd5b50610106600480360381019061010191906110da565b610651565b005b34801561011457600080fd5b5061012f600480360381019061012a9190610fc4565b6106eb565b005b34801561013d57600080fd5b50610146610914565b6040516101539190611372565b60405180910390f35b34801561016857600080fd5b50610183600480360381019061017e9190610f9b565b61093a565b6040516101979897969594939291906113af565b60405180910390f35b3480156101ac57600080fd5b506101b5610c37565b6040516101c291906114d2565b60405180910390f35b3480156101d757600080fd5b506101f260048036038101906101ed9190610f9b565b610c3d565b005b6101fc610e1f565b6000808373ffffffffffffffffffffffffffffffffffffffff1673ffffffffffffffffffffffffffffffffffffffff1681526020019081526020016000206040518061010001604052908160008201805461025690611605565b80601f016020809104026020016040519081016040528092919081815260200182805461028290611605565b80156102cf5780601f106102a4576101008083540402835291602001916102cf565b820191906000526020600020905b8154815290600101906020018083116102b257829003601f168201915b505050505081526020016001820180546102e890611605565b80601f016020809104026020016040519081016040528092919081815260200182805461031490611605565b80156103615780601f1061033657610100808354040283529160200191610361565b820191906000526020600020905b81548152906001019060200180831161034457829003601f168201915b505050505081526020016002820154815260200160038201805461038490611605565b80601f01602080910402602001604051908101604052809291908181526020018280546103b090611605565b80156103fd5780601f106103d2576101008083540402835291602001916103fd565b820191906000526020600020905b8154815290600101906020018083116103e057829003601f168201915b5050505050815260200160048201805461041690611605565b80601f016020809104026020016040519081016040528092919081815260200182805461044290611605565b801561048f5780601f106104645761010080835404028352916020019161048f565b820191906000526020600020905b81548152906001019060200180831161047257829003601f168201915b50505050508152602001600582015481526020016006820180546104b290611605565b80601f01602080910402602001604051908101604052809291908181526020018280546104de90611605565b801561052b5780601f106105005761010080835404028352916020019161052b565b820191906000526020600020905b81548152906001019060200180831161050e57829003601f168201915b505050505081526020016007820160009054906101000a900460ff1615151515815250509050919050565b600160009054906101000a900473ffffffffffffffffffffffffffffffffffffffff1673ffffffffffffffffffffffffffffffffffffffff163373ffffffffffffffffffffffffffffffffffffffff16146105e6576040517f08c379a00000000000000000000000000000000000000000000000000000000081526004016105dd90611490565b60405180910390fd5b600160009054906101000a900473ffffffffffffffffffffffffffffffffffffffff1673ffffffffffffffffffffffffffffffffffffffff166108fc479081150290604051600060405180830381858888f1935050505015801561064e573d6000803e3d6000fd5b50565b600160009054906101000a900473ffffffffffffffffffffffffffffffffffffffff1673ffffffffffffffffffffffffffffffffffffffff163373ffffffffffffffffffffffffffffffffffffffff16146106e1576040517f08c379a00000000000000000000000000000000000000000000000000000000081526004016106d890611490565b60405180910390fd5b8060028190555050565b6000803373ffffffffffffffffffffffffffffffffffffffff1673ffffffffffffffffffffffffffffffffffffffff16815260200190815260200160002060070160009054906101000a900460ff161561077a576040517f08c379a000000000000000000000000000000000000000000000000000000000815260040161077190611470565b60405180910390fd5b604051806101000160405280888152602001878152602001868152602001858152602001848152602001838152602001828152602001600115158152506000803373ffffffffffffffffffffffffffffffffffffffff1673ffffffffffffffffffffffffffffffffffffffff1681526020019081526020016000206000820151816000019080519060200190610811929190610e66565b50602082015181600101908051906020019061082e929190610e66565b50604082015181600201556060820151816003019080519060200190610855929190610e66565b506080820151816004019080519060200190610872929190610e66565b5060a0820151816005015560c0820151816006019080519060200190610899929190610e66565b5060e08201518160070160006101000a81548160ff0219169083151502179055509050503373ffffffffffffffffffffffffffffffffffffffff167f72cefccb74b7edacb21023a72b39a2cecb1123ba70d1eea03d3509d046b941c288604051610903919061138d565b60405180910390a250505050505050565b600160009054906101000a900473ffffffffffffffffffffffffffffffffffffffff1681565b600060205280600052604060002060009150905080600001805461095d90611605565b80601f016020809104026020016040519081016040528092919081815260200182805461098990611605565b80156109d65780601f106109ab576101008083540402835291602001916109d6565b820191906000526020600020905b8154815290600101906020018083116109b957829003601f168201915b5050505050908060010180546109eb90611605565b80601f0160208091040260200160405190810160405280929190818152602001828054610a1790611605565b8015610a645780601f10610a3957610100808354040283529160200191610a64565b820191906000526020600020905b815481529060010190602001808311610a4757829003601f168201915b505050505090806002015490806003018054610a7f90611605565b80601f0160208091040260200160405190810160405280929190818152602001828054610aab90611605565b8015610af85780601f10610acd57610100808354040283529160200191610af8565b820191906000526020600020905b815481529060010190602001808311610adb57829003601f168201915b505050505090806004018054610b0d90611605565b80601f0160208091040260200160405190810160405280929190818152602001828054610b3990611605565b8015610b865780601f10610b5b57610100808354040283529160200191610b86565b820191906000526020600020905b815481529060010190602001808311610b6957829003601f168201915b505050505090806005015490806006018054610ba190611605565b80601f0160208091040260200160405190810160405280929190818152602001828054610bcd90611605565b8015610c1a5780601f10610bef57610100808354040283529160200191610c1a565b820191906000526020600020905b815481529060010190602001808311610bfd57829003601f168201915b5050505050908060070160009054906101000a900460ff16905088565b60025481565b600160009054906101000a900473ffffffffffffffffffffffffffffffffffffffff1673ffffffffffffffffffffffffffffffffffffffff163373ffffffffffffffffffffffffffffffffffffffff1614610ccd576040517f08c379a0000000000000000000000000000000000000000000000000000000008152600401610cc490611490565b60405180910390fd5b60008060008373ffffffffffffffffffffffffffffffffffffffff1673ffffffffffffffffffffffffffffffffffffffff16815260200190815260200160002090508060070160009054906101000a900460ff16610d60576040517f08c379a0000000000000000000000000000000000000000000000000000000008152600401610d5790611450565b60405180910390fd5b600160009054906101000a900473ffffffffffffffffffffffffffffffffffffffff1673ffffffffffffffffffffffffffffffffffffffff166108fc6002549081150290604051600060405180830381858888f19350505050158015610dca573d6000803e3d6000fd5b508173ffffffffffffffffffffffffffffffffffffffff167fc2f5f2568c5a662495f5e68602803c87c71161b24bc0aef12a16423833c858c1600254604051610e1391906114d2565b60405180910390a25050565b604051806101000160405280606081526020016060815260200160008152602001606081526020016060815260200160008152602001606081526020016000151581525090565b828054610e7290611605565b90600052602060002090601f016020900481019282610e945760008555610edb565b82601f10610ead57805160ff1916838001178555610edb565b82800160010185558215610edb579182015b82811115610eda578251825591602001919060010190610ebf565b5b509050610ee89190610eec565b5090565b5b80821115610f05576000816000905550600101610eed565b5090565b6000610f1c610f178461151e565b6114ed565b905082815260208101848484011115610f3457600080fd5b610f3f8482856115c3565b509392505050565b600081359050610f56816116a6565b92915050565b600082601f830112610f6d57600080fd5b8135610f7d848260208601610f09565b91505092915050565b600081359050610f95816116bd565b92915050565b600060208284031215610fad57600080fd5b6000610fbb84828501610f47565b91505092915050565b600080600080600080600060e0888a031215610fdf57600080fd5b600088013567ffffffffffffffff811115610ff957600080fd5b6110058a828b01610f5c565b975050602088013567ffffffffffffffff81111561102257600080fd5b61102e8a828b01610f5c565b965050604061103f8a828b01610f86565b955050606088013567ffffffffffffffff81111561105c57600080fd5b6110688a828b01610f5c565b945050608088013567ffffffffffffffff81111561108557600080fd5b6110918a828b01610f5c565b93505060a06110a28a828b01610f86565b92505060c088013567ffffffffffffffff8111156110bf57600080fd5b6110cb8a828b01610f5c565b91505092959891949750929550565b6000602082840312156110ec57600080fd5b60006110fa84828501610f86565b91505092915050565b61110c8161157b565b82525050565b61111b8161158d565b82525050565b61112a8161158d565b82525050565b600061113b8261154e565b6111458185611559565b93506111558185602086016115d2565b61115e81611695565b840191505092915050565b60006111748261154e565b61117e818561156a565b935061118e8185602086016115d2565b61119781611695565b840191505092915050565b60006111af60188361156a565b91507f486f73706974616c206e6f7420726567697374657265642e00000000000000006000830152602082019050919050565b60006111ef601c8361156a565b91507f486f73706974616c20616c726561647920726567697374657265642e000000006000830152602082019050919050565b600061122f60258361156a565b91507f4f6e6c7920706c6174666f726d2063616e2063616c6c20746869732066756e6360008301527f74696f6e2e0000000000000000000000000000000000000000000000000000006020830152604082019050919050565b60006101008301600083015184820360008601526112a68282611130565b915050602083015184820360208601526112c08282611130565b91505060408301516112d56040860182611354565b50606083015184820360608601526112ed8282611130565b915050608083015184820360808601526113078282611130565b91505060a083015161131c60a0860182611354565b5060c083015184820360c08601526113348282611130565b91505060e083015161134960e0860182611112565b508091505092915050565b61135d816115b9565b82525050565b61136c816115b9565b82525050565b60006020820190506113876000830184611103565b92915050565b600060208201905081810360008301526113a78184611169565b905092915050565b60006101008201905081810360008301526113ca818b611169565b905081810360208301526113de818a611169565b90506113ed6040830189611363565b81810360608301526113ff8188611169565b905081810360808301526114138187611169565b905061142260a0830186611363565b81810360c08301526114348185611169565b905061144360e0830184611121565b9998505050505050505050565b60006020820190508181036000830152611469816111a2565b9050919050565b60006020820190508181036000830152611489816111e2565b9050919050565b600060208201905081810360008301526114a981611222565b9050919050565b600060208201905081810360008301526114ca8184611288565b905092915050565b60006020820190506114e76000830184611363565b92915050565b6000604051905081810181811067ffffffffffffffff8211171561151457611513611666565b5b8060405250919050565b600067ffffffffffffffff82111561153957611538611666565b5b601f19601f8301169050602081019050919050565b600081519050919050565b600082825260208201905092915050565b600082825260208201905092915050565b600061158682611599565b9050919050565b60008115159050919050565b600073ffffffffffffffffffffffffffffffffffffffff82169050919050565b6000819050919050565b82818337600083830152505050565b60005b838110156115f05780820151818401526020810190506115d5565b838111156115ff576000848401525b50505050565b6000600282049050600182168061161d57607f821691505b6020821081141561163157611630611637565b5b50919050565b7f4e487b7100000000000000000000000000000000000000000000000000000000600052602260045260246000fd5b7f4e487b7100000000000000000000000000000000000000000000000000000000600052604160045260246000fd5b6000601f19601f8301169050919050565b6116af8161157b565b81146116ba57600080fd5b50565b6116c6816115b9565b81146116d157600080fd5b5056fea2646970667358221220a86eb94ac2946e70935041277de767a08dde6180cf7f7941570e126fa2c5a2e264736f6c63430008000033",
  "immutableReferences": {},
  "source": "// SPDX-License-Identifier: MIT\r\npragma solidity ^0.8.0;\r\n\r\ncontract HospitalRegistration {\r\n    struct Hospital {\r\n        string name;\r\n        string email;\r\n        uint256 contact;\r\n        string org;\r\n        string pin;\r\n        uint256 establishedin;\r\n        string hospitalAddress;\r\n        bool isRegistered;\r\n    }\r\n\r\n    mapping(address => Hospital) public hospitals;\r\n    address public platformAddress;\r\n    uint256 public penaltyAmount = 100 ether;\r\n\r\n    event HospitalRegistered(address indexed hospitalAddress, string name);\r\n    event HospitalPunished(address indexed hospitalAddress, uint256 penaltyAmount);\r\n\r\n    modifier onlyPlatform() {\r\n        require(msg.sender == platformAddress, \"Only platform can call this function.\");\r\n        _;\r\n    }\r\n\r\n    constructor() {\r\n        platformAddress = msg.sender;\r\n    }\r\n\r\n    function registerHospital(\r\n        string memory name,\r\n        string memory email,\r\n        uint256 contact,\r\n        string memory org,\r\n        string memory pin,\r\n        uint256 establishedin,\r\n        string memory hospitalAddress\r\n    ) public {\r\n        require(!hospitals[msg.sender].isRegistered, \"Hospital already registered.\");\r\n        hospitals[msg.sender] = Hospital(name, email, contact, org, pin, establishedin, hospitalAddress, true);\r\n        emit HospitalRegistered(msg.sender, name);\r\n    }\r\n\r\n    function punishHospital(address hospitalAddress) public onlyPlatform {\r\n        Hospital storage hospital = hospitals[hospitalAddress];\r\n        require(hospital.isRegistered, \"Hospital not registered.\");\r\n        payable(platformAddress).transfer(penaltyAmount);\r\n        emit HospitalPunished(hospitalAddress, penaltyAmount);\r\n    }\r\n\r\n    function getHospitalDetails(address hospitalAddress) public view returns (Hospital memory) {\r\n        return hospitals[hospitalAddress];\r\n    }\r\n\r\n    function setPenaltyAmount(uint256 amount) public onlyPlatform {\r\n        penaltyAmount = amount;\r\n    }\r\n\r\n    function withdraw() public onlyPlatform {\r\n        payable(platformAddress).transfer(address(this).balance);\r\n    }\r\n\r\n    receive() external payable {}\r\n}\r\n",
  "sourcePath": "C:\\Users\\Asus\\Desktop\\hospitalRegistration\\contracts\\HospitalRegistration.sol",
  "compiler": {
    "name": "solc",
    "version": "0.8.0+commit.c7dfd78e.Emscripten.clang"
  },
  "schemaVersion": "3.4.16",
  "updatedAt": "2024-11-11T06:30:09.791Z",
  "devdoc": {
    "kind": "dev",
    "methods": {},
    "version": 1
  },
  "userdoc": {
    "kind": "user",
    "methods": {},
    "version": 1
  }
}